:020000041000EA
:1000000000B5324B212058609868022188439860DF
:10001000D860186158612E4B002199600221596106
:100020000121F02299502B49196001219960352056
:1000300000F044F80222904214D00621196600F024
:1000400034F8196E01211966002018661A6600F04E
:100050002CF8196E196E196E052000F02FF8012189
:100060000842F9D1002199601B49196000215960AB
:100070001A491B48016001219960EB211966A021F2
:10008000196600F012F800219960164914480160C1
:100090000121996001BC002800D000471248134993
:1000A000086003C880F30888084703B5996A0420EC
:1000B0000142FBD001200142F8D103BD02B5186610
:1000C0001866FFF7F2FF186E186E02BD00000240BE
:1000D000000000180000070000035F00212200005C
:1000E000F4000018222000A00001001008ED00E03C
:1000F00000000000000000000000000074B24E7A12
:1001000000200420F7010010C3010010C5010010F9
:10011000C1010010C1010010C1010010C101001097
:10012000C1010010C1010010C1010010C701001081
:10013000C1010010C1010010C9010010CB01001065
:10014000CD010010CD010010CD010010CD01001037
:10015000CD010010CD010010CD010010CD01001027
:10016000CD010010CD010010CD010010CD01001017
:10017000CD010010CD010010CD010010CD01001007
:10018000CD010010CD010010CD010010CD010010F7
:10019000CD010010CD010010CD010010CD010010E7
:1001A000CD010010CD010010CD010010CD010010D7
:1001B000CD010010CD010010CD010010CD010010C7
:1001C00000BE00BE00BE00BE00BE00BEEFF3058054
:1001D000103800BEF2EB887154BB04107CBB0410D5
:1001E0003402001090A31AE700201F49086006C8D7
:1001F00081F3088810471D48006800282FD10DA4FE
:100200000ECC002902D000F012F8F9E71849194A7B
:10021000002000E001C19142FCD1174988471749ED
:1002200088471749884700BEFDE701C901C29A42C5
:10023000FBD370477CBB0410C0000020641E00206C
:1002400020D90410000004200000042020D904104C
:10025000001004200010042000000000704709482E
:1002600002F06CFF0047000008ED00E0000000D045
:10027000681E0020043A0020091E001089030010A7
:10028000CB1D00105756000006005250ABB3605310
:100290008C14041006005250861C03029C14041097
:1002A000060052505422A29DA4140410050052507E
:1002B000DE65F46820D90410F8B5C0460448054B43
:1002C00010B5834203D0044B002B00D0984710BDDB
:1002D000641E0020641E002000000000064807493C
:1002E000091A8B10C90FC91810B5491003D0044B57
:1002F000002B00D0984710BD641E0020641E002013
:100300000000000010B5074C2378002B09D1FFF73F
:10031000D5FF054B002B02D0044800E000BF0123AD
:10032000237010BD202200200000000040070410B0
:10033000054B10B5002B03D00449054800E000BF71
:10034000FFF7CCFF10BDC0460000000024220020B3
:100350004007041070B504000D00012805D0002CE2
:1003600002D1074B9D4207D070BD054B9942F6D193
:10037000044804F0A7FAF2E7024804F0B3FAF3E7FE
:10038000FFFF000038360020F0B5CE46474680B566
:1003900089B003F0F7FD2E4B2E499846180004F063
:1003A0004DF80321042000F05FF80321052000F040
:1003B0005BF800220121042000F06EF800220121E8
:1003C000052000F069F81F226A445123137007AF1B
:1003D00000243C808F333B70973B7B7006AE3480AB
:1003E000E1213170737005AD2C80013129706B7083
:1003F00004AB9946FE23DB0149460B8003AB1C800E
:10040000009401233C21404604F044F80094022368
:100410003A003C21404604F03DF8009402233200AB
:100420003C21404604F036F8009402232A003C2187
:10043000404604F02FF8009402234A463E214046ED
:1004400004F028F8002009B0C0BCB946B046F0BDA1
:1004500068130020A086010010B502490120FFF7B3
:1004600079FF10BDFFFF000010B58300084A9446D5
:1004700063441A6840246240803414408022520150
:1004800013431C60C000034B9C466044416010BD98
:1004900004C001400040014080000B4B9C4660447A
:1004A00000290DD00823002A0CD00422134302682F
:1004B00053400C221A4080235B0103431A607047AB
:1004C0000023F0E70022F1E704C00140034B1B6862
:1004D00002201840431E9841C0B2704700C0064039
:1004E000EFF3108072B6034B1B68002BFBD0BFF3F9
:1004F0005F8F70472C0100D0BFF35F8F024B00224B
:100500001A6080F3108870472C0100D0F8B50600FF
:100510000C001500FFF7E4FFE308F718F15C072271
:100520002240012393400B4205D1DBB20B433B70C9
:10053000FFF7E2FFF8BD2100280001F0E1FC000018
:10054000002307E0054A9A189200BFF35F8F00214D
:10055000116001331F2BF5D97047C04640000034AD
:10056000054A1078431CDBB21370172B02D9130015
:1005700010221A707047C046B4120020074B9B68C7
:10058000103080001950BFF35F8FBFF35F8F044BB3
:100590000021196082F310887047C04600ED00E02A
:1005A000240100D010B50388DA0A1C2A05D15B05A6
:1005B0005B1502335B00C01810BD034B034A0448AF
:1005C000B12101F005FCC04648070410E008041002
:1005D0006007041010B5091A0B1F0A4A88180A4A46
:1005E000904208D8C90706D45B105B055B0D07482D
:1005F000184380B210BD064B064A0748A32101F0FC
:10060000E7FBC046FC070000FE0F000000E0FFFF14
:100610009C070410D40804106007041010B5091AD0
:1006200004394A08090B08D14905490D064B0B430B
:100630000380064B1343438010BD054B054A064813
:10064000AB2101F0C5FBC04600F0FFFF00F8FFFF43
:10065000CC070410A808041060070410012383408D
:10066000034A10681840431E9841C0B27047C04604
:1006700000E100E0002904D0034B1860034B186030
:100680007047034B1860FBE780E200E000E100E008
:1006900080E100E010B5012383401800FFF7EAFF76
:1006A00010BD0000024B9B6810308000C05870479E
:1006B00000ED00E070B504000D00EFF3108672B697
:1006C0000C4B1B68002BFBD0BFF35F8F2000FFF7A4
:1006D000E9FF094B984201D0A84205D13200290018
:1006E0002000FFF74BFF70BD044B054A05488621EB
:1006F00001F06EFB240100D0CD010010DC070410D6
:10070000F008041060070410F0B5CE46474680B5E7
:1007100083B006000D00EFF3108872B64F4B1B68D4
:10072000002BFBD0BFF35F8F4D4B9A683400103421
:10073000A300D7584B4B9F4207D0AF4200D18BE06C
:100740000197494BFB1A2F2B09D94246390030003B
:10075000FFF714FF03B0C0BCB946B046F0BD30008F
:10076000FFF77CFF814600213000FFF793FFBFF3C6
:100770005F8FEFF30581002901D08C4211D1012355
:10078000019C9C430020A368AB4212D00622A256D3
:10079000002A0DDB53009B189B00334A2000D4181D
:1007A000F1E7324B324A36213248FF3101F010FB7B
:1007B0002000AB4249D106256557002D2BDB2A4B83
:1007C0006A00521992009B189A68A260DA79E27165
:1007D0009B795BB2A371002B0FDA2748A080224BD4
:1007E0006A00521992009B18244A11789971157069
:1007F00049463000FFF74EFFA7E768004019800028
:10080000194BC0180430FFF7CDFE0100231D18005E
:10081000FFF7E0FEE2E7002912D100280ED0FF2307
:100820008371174B838015490B78A3710E4A154BC2
:10083000A41A644163431B0D0B70D9E7094FF2E71B
:100840001149201DFFF7EAFED2E7104B084A6A2142
:100850000848FF3101F0BCFA024F76E7240100D0CE
:1008600000ED00E0CD010010B812002014080410C3
:10087000C00804106007041001BD0000023A002007
:1008800001BDFFFFAAAA0000F212002048080410D0
:1008900070B5012202432E4BD31A2F2B28D8EFF329
:1008A0000583002B2BD0EFF3108C72B62949096811
:1008B0000029FBD0BFF35F8F254C274905002D1B76
:1008C0006D416943090D4CB2244989689B00C958A0
:1008D00091421BD00021032932D81D4B4A005218E7
:1008E00092009B189B795BB2A3421FD00131F2E7C3
:1008F0001B4B1C4AC7211C48490001F069FA1B4BDD
:10090000184A92211848FF3101F062FA134A92689E
:100910001749D150174B1A7882711C70BFF35F8F43
:100920000C4B00221A608CF3108870BD084B4A00F3
:100930005518AD005D19FF26AE710F4AAA80E9E790
:100940000E4B084AD1210848490001F041FAC0463F
:10095000B8120020240100D0AAAA000000ED00E097
:10096000500804108C080410600704107808041064
:10097000CD010010023A002001BDFFFF84080410E1
:100980000022044B02E0044902C30132072AFAD9CB
:100990007047C04600E400E080808080024B9C46A7
:1009A00061448900016070474000003410B50400C4
:1009B000FFF7D6FD01002000FFF7F0FFFF232371B2
:1009C000BFF35F8F10BD10B50400FFF7C9FD010034
:1009D0002000FFF7E3FFFF23237100236371BFF3C0
:1009E0005F8F10BD084B5B6A994209D8064A926A2C
:1009F000824207D2994201D0012002E0002000E0AB
:100A0000002070470120FCE70040054010B5002998
:100A10000AD003681B7B8B4206D38068054B9C463B
:100A200061440901401810BD034B044A04483C21AD
:100A300001F0CEF9FFFFFF0FBC090410EC0C04100D
:100A4000E0090410F8B504001700FFF7DFFF06689F
:100A5000456839002000FFF7D9FF0268436801208C
:100A6000AB4201D802D00020C0B2F8BDB242FBD8E0
:100A7000F9E7000010B5002B02DB0260436010BDF7
:100A8000024B034A03483F2101F0A2F9180A04105F
:100A9000B80C0410340A041010B582B00400049895
:100AA000059912184B41002B09DB6846FFF7E2FF5E
:100AB000009A019B22606360200002B010BD0122F9
:100AC0005242014BF1E7C046FFFFFF7F10B50029FE
:100AD00008D0037B8B4205D300684B005B18033BB7
:100AE000C01810BD024B034A0348682101F070F999
:100AF000780A0410940C0410940A041010B5437B77
:100B00008B4201D1012010BDFFF7E0FF8378002B5D
:100B100001D10020F7E70120F5E770B50400857BDF
:100B2000002D01D1280070BD2900FFF7CFFF4378C9
:100B3000A373002B00D1E373002383704370037011
:100B4000F0E70000F8B506000C001500FFF7BEFF47
:100B50000700002C0DD0002D11D0AC4215D029007B
:100B60003000FFF7B3FF84703B78002B13D13D704A
:100B7000F8BD0A4B0A4A0B486F2101F029F90A4BCC
:100B8000074A0848702101F023F9084B044A054838
:100B9000712101F01DF943703D70E9E7DC0A041092
:100BA000700C0410940A0410E80A0410F40A0410EB
:100BB00070B506000D001400002914D0002A14D0CE
:100BC000436880689847002806D02200290030003A
:100BD000FFF7B8FF280007E02A0021003000FFF7E8
:100BE000B1FF200000E0100070BD0800FCE700002D
:100BF00070B504000D1E0CD0FFF768FF0023837052
:100C000043700370617B2A002000FFF7D1FF6073FF
:100C100070BD034B034A0448A52101F0D9F8C04632
:100C20000C0B0410840C0410940A041070B504001A
:100C30000D1E0FD0FFF762FF00280BD1E17B0029CA
:100C40000ED1A37B002B03D1E37B002B0DD1A57329
:100C5000E57370BD084B094A0948F62101F0B8F860
:100C60002000FFF733FF4570EBE7064B034A0448CB
:100C7000FB2101F0ADF8C046100B0410600C04100D
:100C8000940A0410340B041010B5002907D003682F
:100C90001B7B8B4203D3C0680139401810BD034B46
:100CA000034A0448412101F093F8C046BC090410EE
:100CB0004C0C0410E009041070B505000C0008008D
:100CC00000F046FC0949200000F086FBFFF748FCD5
:100CD000074B9C466044800068602C75D0231B063F
:100CE0001B786B75034BA400E55070BDE10D00103F
:100CF00040000034C83700200A4B1A68EFF3108117
:100D000072B61368002BFCD0BFF35F8F054B1B68D6
:100D1000BFF35F8F00221A6081F3108840BF00206C
:100D200000217047E439002010B582B0040000F0C3
:100D300015FB02000B006846FFF79CFE009A019B22
:100D400022606360200002B010BD0000F0B583B0E7
:100D5000070001921D000AAB1C780BAB1E78002C1B
:100D60000BD000682100FFF7C9FE002809D0194BFD
:100D7000194A1A48672101F02BF80068FFF7CDFEE9
:100D80000400002C02D1200003B0F0BD2100380087
:100D9000FFF73CFE019B03604560089B8360099B55
:100DA000C36038682100FFF723FFA042EBD1387DF4
:100DB000019A2B0000F058FB051E01D0002E04D034
:100DC0000C9B002BDFD01D70DDE73868210000F0A0
:100DD00005FDF5E7480B0410A00C0410E009041011
:100DE000F0B5DE4657464E464546E0B58FB00B900F
:100DF0000021794B8200D458894683E029002000E5
:100E0000FFF704FE804602684368921BBB41002B3B
:100E100009DD43461A685B680B9800F025FB002348
:100E2000984600268AE0002B01D1002AF1D100214A
:100E3000584600F0C9FC0700A84215D143461A687D
:100E40005B680892099343469E68DB689846002ECB
:100E500010D029002000FFF717FF037899461B02E6
:100E60001F432761002069E05C4B5D4A5D488E218D
:100E700000F0AEFF5C4B5A4A5A48922100F0A8FF9E
:100E80002369002B00D177E0BB4219D1069807995E
:100E9000002342428B4100920193089A099B0CA8BF
:100EA000FFF7FAFD0C9A0D9B00210491013103918B
:100EB00002954146019100962000FFF747FF16E09A
:100EC0004A4B474A4748A12100F082FF069A079BF8
:100ED000002B01D1002A52D120682900FFF7A6FE7D
:100EE00029002000FFF7D0FE0378013303700023B0
:100EF00023616268BFF35F8F13608AF3108801205B
:100F0000002861D00CA8FFF70FFF0C9E0D9F002258
:100F10000023089209936268EFF3108A72B613688F
:100F2000002BFCD0BFF35F8F23689B465D7B002DB9
:100F300000D063E700239846002600206368BFF3D3
:100F40005F8F00221A608AF31088002ED8D04B469B
:100F50001F022F4341463800B04706900791626850
:100F6000EFF3108A72B61368002BFCD0BFF35F8FCB
:100F7000079B002B00DA83E7079B002BA6DD236984
:100F8000002BA9D0BB4219D10CA8FFF7CDFE0C9ABB
:100F90000D9B06980799009001910CA8FFF77CFD26
:100FA0000C9A0D9B00210491013103910295414659
:100FB000019100962000FFF7C9FE98E70B4B084A05
:100FC0000848A42100F004FF0FB0F0BCBB46B246B5
:100FD000A946A046F0BDC046C8370020700B0410DB
:100FE000D00C0410E0090410880B0410940B0410BA
:100FF00010B50C4B5B68002B04D00B480A21FFF79F
:10100000CDFC10BD074C094A20682300102100F0D8
:1010100046FB032000F096F903212000FFF74CFE69
:10102000EBE7C04600130020E4390020450A001019
:1010300010B5064B5B68002B01D0044810BD044B73
:10104000044A05485E2100F0C3FEC046001300209C
:10105000D00B0410340C0410E0090410F0B5DE4687
:1010600057464E464546E0B58DB0060090461F00F7
:10107000169B9A46179B994618AB1B780793272314
:1010800002AA9446634400221A7021E00100300055
:10109000FFF7FAFD00783CE00698002B5CD0079B38
:1010A000002B59D04946D04704000D0003000B43E4
:1010B00059D0002940DB08A8FFF736FE089A099BA3
:1010C0000094019508A8FFF7E7FC089B9846099F44
:1010D0007268EFF3108B72B6136859424B41D9B264
:1010E0000691002BF8D1BFF35F8F273302AA9446F5
:1010F000634404930023039302934B4601935346A6
:10110000009342463B003000FFF720FE0400051E1E
:10111000BCD17368BFF35F8F002119608BF3108817
:10112000002D17D0272302AA944663441B78002B76
:10113000B2D100022043B0E700236242AB410092EB
:10114000019342463B0008A8FFF7A6FC089B98467F
:10115000099FBDE7012040420DB0F0BCBB46B2463E
:10116000A946A046F0BD0698F6E7F0B5C64600B51C
:1011700084B00500884616001F000AAB1C78FFF7F4
:1011800057FF0294019700962A004346FFF766FF37
:1011900004B080BCB846F0BDF0B5C64600B5050049
:1011A0000C1E42D04268EFF3108772B61368002B12
:1011B000FCD0BFF35F8FE6B22B6898463100180071
:1011C000FFF79CFC00282AD02B69A34213D0240AE5
:1011D000E4B231002800FFF757FD0378A34211D095
:1011E00000206B68BFF35F8F00221A6087F31088BE
:1011F00080BCB846F0BD0E4B0E4A2C210E48FF3184
:1012000000F0E6FD3100404600F0E8FA0028E8D1A1
:101210000A4B084A99210848490000F0D9FD2B697A
:10122000A342DED100232B61DBE70020E0E7C046CC
:10123000F40B04101C0C0410E0090410180C04102A
:1012400010B50400FFF7F4FE2100FFF7A5FF10BD65
:1012500030B583B005000C00EFF30583002B0FD1F0
:101260000B4A00230093FFF780FF00280BDD20BF0F
:10127000FFF7E6FF28002100FFF7B4FB03B030BD05
:10128000FFF7B0FBFAE728002100FFF7ABFBF5E71B
:10129000F90C001010B5002B02DB0260436010BD9A
:1012A000024B034A03483F2100F092FD180A041044
:1012B000A40D0410340A041070B5EFF30580103843
:1012C000EFF3108C72B6194B1B68002BFBD0BFF3E9
:1012D0005F8F01221300834015494B6315490B6052
:1012E000154909780C00C440224213D0104A546AB0
:1012F000124A8500AA58944205D3114AAA580E4CA6
:101300009943217007E00A4A031D9B0099589950A0
:10131000002200E00022BFF35F8F044B0021196020
:101320008CF31088002A00D0904770BD280100D0AF
:10133000004005403C700540033A0020E839002099
:101340003C36002010B50100024A034B1800FFF79D
:10135000DDF810BD000D0410013A0020044B5B6A5B
:10136000034A906A1900536A9942F9D17047C046FE
:1013700000400540084B5B6A01E0074B5B6A8B420B
:10138000FBD301E0044B5B6A8B4203D1024B9B6AA7
:101390008342F7D37047C04600400540F0B583B0A4
:1013A00004000D00FFF7DAFF06000F0022002B00FB
:1013B00092197B41994202D804D1904202D901226C
:1013C0005242D3176846FFF765FF00980199FFF76F
:1013D000D1FF03B0F0BD000070B504000E00EFF3C4
:1013E000108572B61B4B1B68002BFBD0BFF35F8FC1
:1013F000002E1CD02000FFF755F9174B83420BD06D
:1014000019002000FFF756F901212000FFF742F9EB
:101410000123A340114A1360114BA400E650BFF30F
:101420005F8F0C4B00221A6085F3108870BD0C4B47
:10143000A2000021D1500122A2400A490B78934317
:101440000B7005492000FFF75FF900212000FFF72E
:1014500021F9E4E7280100D0B912001038600540F6
:101460003C360020033A0020F0B5DE4600B584B0DB
:101470000400150001921E000293FFF76FFF039511
:101480008E4202D84ED185424CD9EFF3108B72B602
:10149000274B1B68002BFBD0BFF35F8F254A1778C3
:1014A0000125A540EBB23B431370234B5D63221D26
:1014B00092000199D150214AA100029888501B6ADC
:1014C0002B4212D11C4B1B6C2B4208D00020BFF3C7
:1014D0005F8F174B00221A608BF3108823E0184BA4
:1014E000184A1948C52100F073FCFFF737FF8E42F8
:1014F00014D802D1039B834210D80E4B1B78BB42F9
:101500000ED00D4B1D625D631F22224001239340CC
:101510000E4A1360074B1F700120D8E70020D6E762
:101520000120D4E7012004B080BCBB46F0BDC0461A
:10153000280100D0033A002000400540E83900208F
:10154000240D0410880D0410480D041080E200E002
:10155000EFF3108C72B60B4B1B68002BFBD0BFF364
:101560005F8F01238340084A136208490A789A432F
:101570000A70BFF35F8F034B00221A608CF3108850
:101580007047C046280100D000400540033A0020C3
:1015900010B5002908D0037B8B4205D300684B00AF
:1015A0005B18033BC01810BD024B034A0348682177
:1015B00000F00EFC780A0410A80E0410940A04101F
:1015C000F8B506000C001500FFF7E2FF0700002C3D
:1015D0000DD0002D11D0AC4215D029003000FFF7FE
:1015E000D7FF84703B78002B13D13D70F8BD0A4BB8
:1015F0000A4A0B486F2100F0EBFB0A4B074A0848E8
:10160000702100F0E5FB084B044A0548712100F009
:10161000DFFB43703D70E9E7DC0A0410940E041010
:10162000940A0410E80A0410F40A041070B50600C5
:101630000D001400002914D0002A14D043688068DB
:101640009847002806D0220029003000FFF7B8FF95
:10165000280007E02A0021003000FFF7B1FF20003A
:1016600000E0100070BD0800FCE770B50500002325
:10167000437301338373037BC373012406E02100AA
:101680002800FFF785FF0134E4B24470297BA142B2
:10169000F5D82800FFF77CFF0023437070BD10B51C
:1016A000017342608360FFF7E0FF10BDF0B5C646EE
:1016B00000B505000C1E03D1200080BCB846F0BD6B
:1016C000FFF766FF4678002EF6D031002800FFF7BE
:1016D0005FFF477800239846437021002800FFF7FA
:1016E00057FF43464370320021002800FFF79EFF5A
:1016F000040039002800FFF7D9FF0200210028006C
:10170000FFF794FF0400D7E7F0B5C64600B5040024
:101710000D001700002927D0FFF73AFF4378002B70
:1017200028D18378002B2BD101782000FFF7BEFF52
:1017300006008046002F0AD0E17B002926D1A37B3A
:10174000002B03D1E37B002B25D1A573E573434622
:10175000002B26D129002000FFF71AFF0023437039
:10176000300080BCB846F0BD114B124A12483821F7
:1017700000F02EFB114B0F4A0F483A2100F028FBD6
:101780000F4B0C4A0C483B2100F022FB2000FFF7D6
:10179000FFFE4570D3E70B4B064A0748422100F095
:1017A00017FB31002000FFF7F3FE00238370D1E721
:1017B000BC0D0410800E0410C40D0410FC0D0410A8
:1017C000240E0410340B041070B504000A00457B8D
:1017D0002900FFF799FF6073280070BD70B50600FF
:1017E0000C1E40D0437B8B4207D0FFF7D1FE050093
:1017F0008178002906D1002036E00121FFF7E4FFBF
:10180000012031E03000FFF7C3FE0178A1420DD086
:101810003000FFF7BDFE4178A1420AD00029F7D180
:10182000124B134A13486B3100F0D2FA6B780370F5
:1018300001E06B7843700023AB706B7001222100D4
:101840003000FFF761FF0200717B814205D030005C
:10185000FFF7ECFE7073012006E0074B044A0548D1
:10186000712100F0B5FA002070BDC0468408041054
:10187000680E0410C40D0410480E041070B5046BFB
:10188000E30701D4200070BD02003032C0239B0169
:1018900013430A4A1A60456A836AAD01ED18AD0226
:1018A000062000F0BDF9064901F09CFC010028006B
:1018B00001F098FC0021FFF771FDE3E70103000050
:1018C0004E0E000070B504000E001500FFF7D6FFA5
:1018D00022002C32E36A5E40354080235B011343D3
:1018E0001D60206370BD000070B505000C0006206F
:1018F00000F096F9C000210001F074FCC60908D080
:101900000E4B9E4216D87F230340013334005E08FD
:1019100000E001246C62AE62002200212800FFF783
:10192000D1FF062000F07CF98000A101891901F0A7
:1019300059FC70BD0026024CECE7C046FEFF0000DB
:10194000FFFF000010B505394901013AD2001143EB
:10195000002B09D002220A43012B07D0002111439A
:101960006E22FFF7AFFF10BD0022F4E70421F6E777
:10197000002909D00A22064B9C4660444342584144
:10198000044B4000C252704780225200F3E7C04629
:101990000080FCBFF839002070B505000C0006205F
:1019A00000F03EF9061E27D0164B9D4226D080221D
:1019B000D203154B1A60154B1A60154B9B6811002A
:1019C0009943FAD100212800FFF7D2FF2100280017
:1019D000FFF78AFF06000023012208212800FFF7F5
:1019E000B1FF2A002C3280239B01134310221A607E
:1019F000084B2B630323AB64300070BD80221204BC
:101A0000D7E7C0460080034000E0004000F00040FF
:101A100000C0004001030000F8B5DE4657464E46C0
:101A20004546E0B506000F0015000A9A934250D3D0
:101A30001A0E92461B0298460A9A002340465146C7
:101A400001F00EFC81467400A419A4002F4B9C46A3
:101A500064446368834200D26060331FDBB29B46FC
:101A6000012B3CD9C0239B012343802212011A6021
:101A7000274BB200D158002907D0586901F0B2FBBA
:101A8000013043001B18033BFDD26D0123685D400C
:101A9000E0222A4080235B0123431A605A46012A30
:101AA00028D980239B012343802212011A604B46D0
:101AB00063604A4600234046514601F0D1FB144B77
:101AC000B60098510120F0BCBB46B246A946A046DC
:101AD000F8BD104B104A1148332100F079F9012F5D
:101AE000C0D1C0239B01234303221A60A368DB07F4
:101AF000FCD5CAE72168794003220A401A60A3682E
:101B00000125BD401D42FAD0CBE7C0460080004011
:101B100054370020B40E04100C0F0410C80E04102B
:101B200030B583B00C2000F011F9FEF7CFFC00288F
:101B30000DD0002304E02E4A99002E48885001332E
:101B4000092BF8D92A4B2C4A5A6203B030BD2B4BD3
:101B500000229A6700F002F9294B01221A60274BF4
:101B60005B6C012BFBD1274B03221A60234B9B6B31
:101B7000012BFBD1013300930433234A0121234875
:101B800000F054F805230093214A0121214800F078
:101B90004DF8214B0093002202210420FFF73CFF67
:101BA0001E4D00952B00002201210520FFF734FF78
:101BB000104C00942300002200210720FFF72CFF87
:101BC00000942300002200210820FFF725FF0A4B84
:101BD00000932300002200210920FFF71DFF00953C
:101BE0002B00002200210620FFF716FFADE7C046BC
:101BF00054370020006CDC021BB70000008000405E
:101C00003CB0004030B00040002F685900800240D6
:101C1000008C864700C00240001BB7004059730784
:101C2000014B8000C058704754370020F0B5C646BD
:101C300000B504000E0017001D00374801F0D2FA6D
:101C40008046364BFA18364B9A4239D80100380094
:101C500001F0C8FA0200103A98235B009A4235D886
:101C60006B1E062B38D8069B013B062B34D83F0948
:101C7000474537D32D04069B1B031D432368002BC8
:101C800036DB284B9C4244D080235B01264A1360FC
:101C9000264A1360264A926819009143FAD12660B9
:101CA000A060221DC0239B01134321221A602268D9
:101CB000002AFCDAE56008221A6080BCB846F0BD54
:101CC0001C4B1D4A1D48112100F082F81C4B1A4A7A
:101CD0001A48192100F07CF81A4B174A17481C21A2
:101CE00000F076F8184B144A1448232100F070F8DD
:101CF00022683F231340B342C3D1A3681B051B0DC9
:101D00008342BED1E368EE22D2021340AB42B8D187
:101D1000D3E780239B01B9E7001BB70080E84BD3D2
:101D200080F8A93200C0024000E0004000F000400E
:101D300000C000401C0F04103C1004107C0F041065
:101D4000B80F0410D40F04102010041080239B003F
:101D50000343014AD362704700800540064BAA2224
:101D600012011A602F22DA60044B054A1A60024BF6
:101D70005B68002BFBDA70470040024000600240C5
:101D800000B0FA0000BEFDE703000A4A1268002A0C
:101D900008D0084A1068C318074A9A4206D3054A71
:101DA00013607047034A05491160F2E70120404281
:101DB000F7E7C046C437002000000420043A0020A2
:101DC0000020704701204042704710B5FFF7DAFF4E
:101DD00030B583B00D001900002A0BD0074B084C1A
:101DE000019200932B000200200002F0BFF80120B6
:101DF000FFF7C8FF034B1A00F1E7C0464810041074
:101E0000581004105410041070B52B4B2B4A1A6054
:101E10002B4B2C4A1A602C4B9A682A4B9343FAD1CD
:101E20002A4C01E008CC9847294B9C42FAD3FFF793
:101E300077FE234B274A1A60234B9B68DB43DB0169
:101E4000FAD1254B40229A675A671A67DA66234C03
:101E500009E0234B234A24488721FFF7B9FF2000DC
:101E6000FEF7A4FD0834214B9C4209D22368002BC5
:101E7000F5D0012BEDD12000FEF7A5FD0834F2E7E7
:101E80001B4DA9681B4CC022200001F053FEAC6022
:101E9000EFF30583002B00D000BEFEF751FBFEF7E9
:101EA0006FFDFFF7A5F8144C01E008CC9847134BE1
:101EB0009C42FAD370BDC04600E00040BFCDFBFE9F
:101EC00000F00040FE7F3C0000C00040281E0020C3
:101ED000381E0020FFFFFF0100F00140201E0020FF
:101EE00088100410FC100410A8100410281E0020F4
:101EF00000ED00E000000020381E0020641E0020DD
:101F00000FB400B583B0084802F000F8049B002B22
:101F100007D005A90191180002F008F8034801F064
:101F2000F5FF0120FFF72EFFE8100410F810041051
:101F30009A4200D288547047704710B5002802D0EA
:101F40000B684968984710BD0100002007E0830036
:101F50001B185B00501C08601078C01830380A68E5
:101F60001378303BDBB2092BF1D97047F0B5DE4670
:101F700057464E464546E0B583B093461F000C9B3E
:101F80009A460D9C0E9B99460F9B9B0703D0B84623
:101F90000F00060022E00192A34688464E46B9464D
:101FA0000700B44207D2551C4B4641462020B84793
:101FB00001342A00F5E73D004F465C46019B9B46F5
:101FC000B1464646B84637002E0007E0013C551C96
:101FD0005346185D43463900B0472A00002CF5D11E
:101FE00035003E0047460F9B9B0707D4100003B007
:101FF000F0BCBB46B246A946A046F0BDB0464E4630
:10200000B9462F005D46531BB342EFD2541C4B46DA
:1020100041462020B8472200F5E7F0B5CE464746B6
:1020200080B585B0944698460C9D0D9C0EAB1B78F0
:102030009946109A119B129EB7071CD4002B0CD006
:10204000F7070AD54F46002F02D10C37374204D08C
:10205000013B02E030272F550134944201D21F2C5E
:10206000F8D9F70707D59C4205D21F2C03D8302793
:102070002F550134F5E7F70612D5770505D4002C66
:1020800003D0944221D09C421FD00F9A102A32D004
:102090000F9A022A37D01F2C0AD830222A55013431
:1020A0001F2C05D84A46002A33D02D222A55013448
:1020B000039602930194009543466246FFF756FF4C
:1020C00005B0C0BCB946B046F0BD621E012C10D0B0
:1020D0000F9F102F0BD014000F9A102AD8D1B206E0
:1020E000D6D51F2CD4D858222A550134D3E7023C28
:1020F000CBE71400C9E7B206EED41F2CECD8782247
:102100002A550134C7E71F2CD2D860322A55013432
:10211000C1E7720703D52B222A550134C8E73207DD
:10212000C6D520222A550134C2E7F0B5DE4657460F
:102130004E464546E0B593B081468A4608920993DB
:102140001CAB10CB1B789B461E9D219B9846002CF8
:1021500003D1102342469A4390468023DB00464633
:102160001E4042461A4212D0002C22D000260EE019
:102170003033D9B2771C0AAB99552900200001F001
:1021800031F8AC4216D31F2F14D83E0004002900AA
:10219000200001F027F8CBB2092BE9D9424692067C
:1021A00005D54121C918C9B20A39C9B2E2E761218E
:1021B000F8E7270043460693209B05931F9B049353
:1021C00003955B46029301970AAB0093099B089A1B
:1021D00051464846FFF721FF13B0F0BCBB46B2465C
:1021E000A946A046F0BDF0B5DE4657464E464546E8
:1021F000E0B597B00A900B910C929A46209B9946B5
:10220000219F22AA13789B46249B0993259C289BF7
:1022100098464A463A4302D1103293439846802268
:10222000D20045461540434613420AD04A463A4337
:1022300041D000252E0053460D934D46099B9A46EA
:102240001BE02E0053460D934D46099B9A4614E021
:102250003033DAB2731C99460EAB9A5552462300BE
:102260002800390000F0FCFFBC4226D819D04B46AC
:102270001F2B1CD84E4605000F0052462300280095
:10228000390000F0EDFFD3B2092BE1D942469206A6
:1022900005D54122D218D2B20A3AD2B2DAE7612287
:1022A000F8E7AA45E3D94E460D9B9A4608E04E460C
:1022B0000D9B9A4604E0002602E04E460D9B9A468E
:1022C00043460693279B0593269B0493099B039300
:1022D0005B46029301960EAB009353460C9A0B9902
:1022E0000A98FFF79AFE17B0F0BCBB46B246A94663
:1022F000A046F0BDF0B5DE4657464E464546E0B531
:1023000091B0804689460C929A461A9C1B9D2200E9
:102310002B002000290001F026FA002800D0ECE074
:1023200001225242D44B2000290001F017FA002864
:1023300000D0E2E001225242D04B2000290001F0FF
:10234000F7F9002800D0D8E000220023200029005F
:1023500001F0EEF9002800D0E4E006940795802310
:10236000DB001E9A1A400D921E9A1A4201D10623D2
:102370001C930698079902000B000892099303002A
:102380000A00024300D1D9E0080D4005400DBC4EC3
:10239000B44660440A03120B1E00BA4B13431F00DD
:1023A00001F0F4F9B84AB94B01F07BF9B84AB94BDE
:1023B00001F058F9089009910022B74B300039001C
:1023C00001F04BF9B54AB64B01F06BF902000B0076
:1023D0000898099901F046F901F0F0F9834601F0F7
:1023E000D5F906000F00AF4AAF4B01F05AF90022B1
:1023F000AE4B01F037F901F0E1F90890AC4AAD4B72
:102400003000390001F04DF906000F00089801F086
:10241000BDF9A94AA94B01F044F902000B003000B4
:10242000390001F01AF906000F0002000B0001F05C
:1024300038F90A900B91089BA14A94466344002105
:102440000022089109921B0509930023089332008A
:102450003B003000390001F005F90E900F91320079
:102460003B0000208021C90501F0F7F806000F00AD
:102470000022944B0A980B9901F0F9F80022924B34
:1024800001F0F0F802000B000A980B9901F0EFF848
:1024900000228E4B01F0E6F802000B000A980B991F
:1024A00001F0E5F802000B003000390001F0DAF825
:1024B00002000B000E980F9901F0D9F80022714B21
:1024C00001F0D0F8089A099B01F0EBF806000F0024
:1024D00008960997069A079B01F040F900282FD02B
:1024E00001235B429C46E3440022774B30003900D5
:1024F00001F0BDF80890099122E01E9B04931D9BFA
:1025000003931C9B02930094019553460C9A4946F1
:10251000404600F0FFF811B0F0BCBB46B246A946F9
:10252000A046F0BD00210022069107920694802368
:102530001B069C46AC446346079310E700239B466A
:102540005B466333C62B20D804261E9B1B0528D56B
:10255000089A099B190011430FD05D4A5D4B0698FC
:10256000079901F0F3F800287AD000225A4B069818
:10257000079901F0DDF8002872D01C9B5B4506DD51
:102580005A469B1A013B1C9303E00526DDE7002316
:102590001C938023DB001E9A1A431E920026002300
:1025A0009B461D9B9E4265D29F1B02231E9A1A408A
:1025B0000A921E9A134202D0002E00D000275B46DA
:1025C000002B07D0089A099B0698079901F04FF84D
:1025D00006900791002200232000290001F0A8F8AE
:1025E000002800D07CE03D4B1E9A134004930397D3
:1025F0001C9B0293069B079C0093019453460C9AE4
:102600004946404600F086F8002E00D183E71E9B25
:102610009B0671D54525441C5346020049462800B7
:10262000C0475A46D317D2185A4005230593013E96
:102630000496002303930A3302935B46DB0F019356
:1026400000925346220049464046FFF76EFD0A9B22
:10265000002B00D15FE7020047460C9E1D9D53E012
:102660001C9B002B9DD00D9B002B9AD01C9B013BEB
:102670001C9396E7002798E7FFFFEF7FFFFFEFFF30
:1026800001FCFFFF0000F03FFB799F501344D33F54
:10269000B3C8608B288AC63F0000F83F61436F6370
:1026A000A787D23F71A379094F930A400000E03F0A
:1026B0001655B5BBB16B0240EF39FAFE422EE63F2C
:1026C000FF03000000002C400000244000001840E0
:1026D0002D431CEBE2361A3F80842E41FFF7FFFFAB
:1026E000069C079D22002900802000068446614444
:1026F0000B000692079376E765258CE7541C53463A
:1027000049462020B8472200931BAB42F6D3100065
:1027100001E7C046F0B5DE4657464E464546E0B5B1
:1027200095B00690079193469946209F1E9A1F9B4D
:102730001000190001F017F8002831D1012252428F
:10274000BF4B1E981F9900F0F3FF002837D10122DC
:102750005242BC4B1E981F9901F000F800283DD151
:102760000022B94B1E981F9900F0F8FF002850D1A5
:102770000022B64B1E981F9900F0DAFF002848D1BE
:10278000002200231E981F9900F0D2FF002850D18C
:1027900000239846229B5B0500D4B6E0002458E055
:1027A000229B0393219B029303230193A84B009345
:1027B0004B465A4607990698FFF7D8FB0EE1229B35
:1027C0000393219B029304230193A24B00934B4656
:1027D0005A4607990698FFF7C9FBFFE00423229A9F
:1027E0001A4022990B4210D09B4B002A0FD0042292
:1027F0002299039121990291019200934B465A46E6
:1028000007990698FFF7B2FBE8E0944BEDE7032247
:10281000EEE7229B0493219B039302971E9B1F9C30
:10282000009301944B465A4607990698FFF762FDBC
:10283000D4E01E9A1F9B0020002100F00EFF1E9086
:102840001F9101239846A5E70CAB30221A55013F92
:1028500001341F2C01D8092FF6D81E981F9900F0BB
:10286000ADFF050000F092FF02000B001E981F99BB
:1028700000F0F3FE7A4BFA009B181A685B680A9224
:102880000B9300F00EFF0890099100F0BBFF0600CB
:1028900000F078FF02000B000898099900F0DDFEB7
:1028A0000890099100226F4B00F058FF00282ED0AD
:1028B0000136300000F066FF02000B000A980B9909
:1028C00000F03CFF002801D001350026002F2CD15C
:1028D000280000F05BFF02000B001E981F9900F01B
:1028E000BCFE06000F0000225E4B00F021FF002816
:1028F00046D100225B4B3000390000F02FFF00284A
:102900003ED1EB073CD501353AE0062746E70022E9
:10291000544B0898099900F00BFF0028D6D1002EDF
:1029200001D0F307D2D50136D0E7AA461F2C11D823
:10293000013F0A21300000F055FC651C30310CAB22
:1029400019550A21300000F04DFC092E0ED9060061
:102950002C00EBE755461F2C0CD87B1E002F09D00E
:102960000CAA302111551F000134F4E72B00554605
:102970001C00F0E71F2C03D80CAB2E221A55013493
:102980001F2C10D80A21280000F004FC661C3031EE
:102990000CAB19550A21280000F0FCFB051E01D0E4
:1029A0003400EDE734000323229A1340012B1CD09E
:1029B0001F2C06D84346002B32D00CAB2D221A55C3
:1029C0000134229B0393219B029301940CAB00934F
:1029D0004B465A4607990698FFF7C8FA15B0F0BC5F
:1029E000BB46B246A946A046F0BD219B002B13D0A2
:1029F0004346002B02D10C3313420FD0219B013BE5
:102A00002193190003E00CAB30221A5501348C429B
:102A1000CED21F2CF7D9CBE72199F8E72199F6E719
:102A2000229B5B0704D50CAB2B221A550134C8E757
:102A3000229B1B07C5D50CAB20221A550134C0E7D9
:102A4000FFFFEFFFFFFFEF7F65CDCD4165CDCDC12E
:102A5000181104101C1104100C110410141104108E
:102A6000C01204100000E03FF0B5DE4657464E4667
:102A70004546E0B593B082468846934611930029B7
:102A800000D106E300255646119B1878002800D196
:102A900002E3252809D06C1C5B462A004146B0475A
:102AA000119B013311932500EEE7013311930027A9
:102AB00020E001231F4301321192012418E0022378
:102AC0001F4301321192012412E004231F430132FB
:102AD000119201240CE008231F43013211920124BA
:102AE00006E010231F4301321192012400E000246C
:102AF000002C09D0119A1378203BD9B21029F6D8AE
:102B00008B00C449CB589F46119B1A781300303B69
:102B1000DBB2092B10D92A2A13D00B94119B1A78F7
:102B20002E2A1ED0119A1378683BD9B2122959D88F
:102B30008B00B949CB589F4611A8FFF705FA0B90B7
:102B4000ECE71C9B1A1D1C921B68002B04DB0B93EB
:102B5000119B01331193E1E7022217435B420B9370
:102B6000F6E78022D20017435A1C11925A781300BC
:102B7000303BDBB2092B0BD92A2AD3D11C9B1A1D5F
:102B80001C921C68002C08DB119B01331193C9E7D0
:102B900011A8FFF7D9F90400C4E70024F4E7802363
:102BA0005B003B43511C119151786C2901D01F00EF
:102BB00018E0C0239B001F430232119212E08023D1
:102BC0003B43511C11915178682901D01F0009E045
:102BD000C0231F430232119204E080235B001F4395
:102BE00001321192119B1878672816D8252826D310
:102BF0000300253BDAB2422A21D89300874AD358F2
:102C00009F4680239B001F4301321192EAE78023F5
:102C10005B001F4301321192E4E778280FD869283E
:102C20000DD30200693AD2B2012393407C4A134289
:102C30000FD11A0600D507E25B0500D594E16C1CA4
:102C40005B462A004146B047119B01331193250092
:102C50001AE778280AD062283AD06F283BD0582843
:102C60003CD010239F43063B9C4601E010239C462A
:102C7000582836D0692803D0642801D00C22974305
:102C80007A0501D50122974369282DD064282BD0DD
:102C9000BA0500D5A2E0FA0500D5C3E07A0600D453
:102CA000D5E01C9A111D1C911168FF220A4005975E
:102CB0000B9B0493039463460293002301930092B9
:102CC0005B462A0041463000FFF72FFA05002AE054
:102CD00002239C46CCE708239C46C9E710239C4668
:102CE000C6E720221743C5E7BA0520D4FA0550D419
:102CF0007A0666D51C9A111D1C911168FF220A40A4
:102D0000D0171118414005970B9B04930394634619
:102D10000293D20F019200915B462A004146300097
:102D2000FFF703FA0500119B01331193ACE61C9ADF
:102D3000073207218A43110008311C91116853683A
:102D40009946DB170C930D930C9A0D9B100048408D
:102D50000E904A4653400F930E980F990C9A0D9B74
:102D6000801A99410E900F9108970B9B0793069438
:102D700063460493002305934B46DA0F02920090BA
:102D800001915B462A0041463000FFF72CFA05000E
:102D9000C9E71C9A111D1C911268D01711184140E7
:102DA00005970B9B0493039463460293D20F019201
:102DB00000915B462A0041463000FFF7B6F9050056
:102DC000B1E73A0605D51C9A111D1C910023D25E6D
:102DD00096E71C9A111D1C91126891E71C9A073204
:102DE00007218A43110008311C9108970B9B079318
:102DF0000694634604930023059302935368126874
:102E0000009201935B462A0041463000FFF7EBF940
:102E1000050088E72411041068110410B41104108F
:102E2000419000001C9A111D1C9105970B9B049367
:102E300003946346029300230193136800935B4657
:102E40002A0041463000FFF770F905006BE73A06AB
:102E500006D51C9A111D1C9112681204120C26E74B
:102E60001C9A111D1C91126821E7462819D01C9B41
:102E70000733072293431A0008321C9204970B9AD7
:102E8000039202941A685B68009201935B462A00E1
:102E900041463000FFF73EFC0500119B01331193C2
:102EA000F2E520231F43E2E7672801D0472802D13B
:102EB00080231B011F43452801D0472801D120232F
:102EC0001F431C9B0733072293431A0008321C92AE
:102ED00004970B9A039202941A685B68009201931C
:102EE0005B462A0041463000FFF704FA0500119BBB
:102EF00001331193C8E502231A003A4091463B4240
:102F00001DD001241C9B1A1D1C926F1C18785B4657
:102F10002A004146B0474B46002B14D1119B013388
:102F200011933D00B0E5571C5B4641462020B04759
:102F300023003A005C1C9D42F5D81500E2E701230E
:102F40002A000B9DF6E73A00B1460B9E06E0571C9F
:102F50005B4641462020C8472C003A00651CA6422B
:102F6000F5D817004E46D9E71C9B1A1D1C921B680A
:102F70009A46002C25D101225242534601E00133EA
:102F80000A001978002902D0511E002AF7D15246B2
:102F90009B1A8022D200390011408946174202D084
:102FA000A34200D9230002221100394010913A4275
:102FB00009D02A00250057469A4633004E469946C6
:102FC00021E02200D9E72A004546A04606E0541C2D
:102FD0005B4629002020B0473B0022005F1C0B9974
:102FE0009942F4D84446A8463B00250057469A46E5
:102FF00033004E46994606E01D000137541C5B46DF
:103000004146C84722003878002804D0002EF4D06A
:103010006B1E002DF0D1150053464E46109A002A23
:1030200003D1119B013311932EE50B9F2A0006E07B
:10303000551C5B4641462020B04723002A005C1CFB
:103040009F42F5D81500ECE721233B431C9A111D44
:103050001C91126805930823049303940833029388
:103060000023019300925B462A0041463000FFF79F
:103070005CF80500119B0133119305E56C1C5B4660
:103080002A0041462520B047119B013311932500AA
:10309000FAE40B4B9A46F5E4B2465D450DD35B4628
:1030A0005A1E5B4641460020D047280013B0F0BCB2
:1030B000BB46B246A946A046F0BD2A00F1E7C0468D
:1030C000391F00100EB430B584B0010007AC08CC35
:1030D00003940122054D009452422800FFF7C4FCDE
:1030E00004B030BC08BC03B01847C046311F001004
:1030F00010B582B0044C009313000A0001002000B8
:10310000FFF7B2FC02B010BD311F001000B585B052
:103110000290039101210448009313004A4202A93E
:10312000FFF7A2FC05B000BD3B1F001001480421C1
:10313000014B1847301300205D31001010B501001D
:1031400018231B8814221088984710BD10B5010061
:1031500018231B8816221088984710BDF0B5C64664
:1031600000B507000E0000250123984600E0013558
:10317000B5420AD2AC003C192068FFF7DFFF20609F
:103180000028F4D100239846F1E7404680BCB846B9
:10319000F0BD0000124A936F9B0815D29066D1666D
:1031A000002905D0FFE7FFE7FFE7516F106F704779
:1031B00004B580210906C2175140002800D0C84339
:1031C0003DF076FA002104BDF0B5146E556E576FD0
:1031D000166FFFF7E3FF1466556657671667F0BD75
:1031E000000000D0114A936F9B0813D210665166FD
:1031F000002905D0FFE7FFE7FFE7516F106F704729
:1032000004B5002801D00020C0433DF051FA002150
:1032100004BDC046F0B5146E556E576F166FFFF7BC
:10322000E5FF1466556657671667F0BD000000D0CD
:1032300094464A4A926F9208624601D228E0C046FC
:10324000F0B5464E346E756E776F366F00F020F82D
:103250009446424A14665566576716676246F0BD43
:1032600094463E4A926F9208624601D254E0C046AC
:10327000F0B53A4E346E756E776F366F00F04CF8DD
:103280009446364A14665566576716676246F0BD1F
:10329000002B24DB11D000293EDA00B5C94340429F
:1032A00000D1013100F038F8C943404200D101316A
:1032B000DB43524200D1013300BD002AEBD100288C
:1032C00001D1002905D00020C90FC90701D1C04391
:1032D000410800B53DF0C4F90022002300BD00B54F
:1032E00000290ADBDB43524200D1013300F014F81D
:1032F000C943404200D1013100BDC943404200D121
:103300000131DB43524200D1013300F005F8DB43C9
:10331000524200D1013300BD002923D1002B18D126
:10332000002A0CD0BC460D4F38667A660021002377
:10333000FFE7FFE7FFE77A6F386F674670470028BF
:1033400001D00748010000B53DF08AF900220023B2
:1033500000BD02000B00002000217047000000D0DB
:10336000FFFFFFFF002B00D0BFE0130C28D1002A85
:10337000E7D080B4114F39667A66FFE7FFE730B4D3
:10338000040C7B6F396F1B0423433B667A66FFE7AF
:10339000FFE7FFE7C04684B27B6F3D6F1B0423430A
:1033A0003B667A66FFE7FFE7C04600232C042D0C3E
:1033B0007A6F386F00196941B0BC7047000000D0C7
:1033C000F0B594460025140E01D112020835140FF1
:1033D00001D112010435940F01D192000235D40FAE
:1033E00001D152000135D40B0134254F7C66254CA8
:1033F0003C660E0C93B2FFE7FFE7FFE73C6F6643C6
:10340000360C7703BE467343DF0B5B04C01AB94129
:10341000130C7343DB18C91ACE086643360CB64446
:1034200093B273431F0F1B01C01AB941130C7343AE
:103430001F0B1B05C01AB941860D8F023E43664320
:10344000360C092D24DB520A7243801A7703460A90
:103450006643360C16235B1BDE40DF40BF19644613
:103460006643821B7046043506330100D940A840EC
:10347000C01900D30131A24206D20023F0BD0000E2
:10348000000000D0FFFFFFFF121B0130F3D3F1E774
:1034900009277F1BFE406446A2B27243801A00D205
:1034A0000139220C7243130C1204821A99410B0049
:1034B0007046043513370100F940A840801900D345
:1034C0000131002B02D1A2420AD2F0BD013000D35B
:1034D0000131121BFAD2013BF8D1A24200D2F0BD59
:1034E000013000D30131121BF7E7F0B51C0C00D0FE
:1034F00080E00CB400251C0A04D11B02160E3343D5
:10350000120208351C0B04D11B01160F33431201A4
:1035100004359C0B04D19B00960F33439200023577
:10352000DC0B02D192185B4101351C0097186441F5
:103530000134464F7C66464C3C660E0CFFE7FFE7C5
:10354000FFE7C0463C6F6643360C7703BE4697B232
:103550007743C01B00D20139C01B00D201399FB292
:103560007743C91BC91B170C77437E04FF0B801BD5
:10357000B941CE086643360C0C2D33DBB644120B32
:103580001F053A431B0B97B27743C01B00D201398A
:103590009FB27743C91B170C77433E043F0C801B37
:1035A000B941860D8F023E43664329277F1BFE40AB
:1035B0000C3D7746AF40BF1930BCA2B2ABB27243EC
:1035C0007343801A9941220C7243130C1204801A1F
:1035D000994102000B000137001BA941F9D2781E66
:1035E0000021F0BD0C277F1BFE4077467F0BAF40CC
:1035F000FF19E0E700245D1C07D0144F7D66396693
:10360000FFE7FFE7FFE7FFE73C6F95B29EB2654338
:103610006643401BB141150C1E0C654366433604DE
:103620002F0C3E432D04401BB141994204D20200AD
:103630000B0020000021F0BD01D19042F7D3801A89
:10364000994101349942F2D3F6E70000000000D01E
:10365000FFFFFFFF48404140484018B4134B5B68F0
:10366000019308BD18B4114B1B68019308BD944623
:103670000F4A926F920805D2624618B40B4BDB6872
:10368000019308BD0A4AF0B5146E556E576F166F58
:103690006246FFF7F2FF064A1466556657671667DB
:1036A000F0BD18B4014B9B68019308BDE0370020C2
:1036B000000000D0FFB550404240504059404B40C0
:1036C000594000E0FFB5154F4C00640D03D0BC42DB
:1036D00004D10C0314D80020090D09055C00640D09
:1036E00003D0BC4204D11C030AD800221B0D1B05C9
:1036F00001264B4009D44B4003D58B4200D1824276
:10370000FFBD9942FCD19042FFBD0B43DB18034340
:103710001343F5D0C9434918FFBD0000FF0700005F
:1037200000B5FFF7CFFF01D0002000BD012000BD94
:1037300000B5FFF7C7FF804100BDC04600B5FFF7E9
:10374000C1FF01D9002000BD012000BD00B5FFF779
:10375000B1FF01D9002000BD012000BD00B5FFF779
:10376000A9FF804100BD012040054A00121804D87D
:103770005A00121801D8002070470120704700201D
:10378000704700000021002805D17047C11748404C
:10379000401AFAD0C90713B5064B1B6898470CBCF2
:1037A000441CA2401005120B0349091B09051943CB
:1037B000114310BDE03800201F04000010B54C007C
:1037C000620D8023D218DB00D21A5B057E2A10DD41
:1037D0009E3A13DACC170903490819435242D140E3
:1037E000640001341532202A05DAD04008436043D2
:1037F00010BD002010BD0846604310BDC80FC018A2
:10380000013810BD18B4024B5B6A019308BD00007B
:10381000E037002018B4024BDB6D019308BD0000B7
:10382000E0370020C94211D300B549004908002201
:1038300000F014F8002904D4002240428A411146C5
:1038400000BD80210906002000BD000018B4024B15
:10385000DB6E019308BD0000E037002018B4024B76
:103860009B6F019308BD0000E037002018B4024BA5
:10387000DB6F019308BD0000E037002010B5014860
:10388000FEF73EFB1013041070B513231C78012CB7
:1038900012D0012C12DC214B214A93642148FFF7FE
:1038A0004DFC214B186070BD20491D4A9800815085
:1038B00001331F2BF8D9ECE70023FAE71C48FFF788
:1038C00045FC05001B48FFF741FC023803789B00CC
:1038D0007F2B09DD12488022290000F02BF9022CF1
:1038E00008D0022CDADCD6E7134B144A14483221F4
:1038F000FEF76EFA134B1A88B5231B029A4209D1C0
:10390000114B1A88114B9A4204D1114B1A88114B52
:103910009A42E6D00020FEF7F3FAC046593900106B
:10392000E03700204C330000E03800207D380010E4
:10393000534400005346000028130410C41304101D
:103940007C13041054380000D838000049460000A9
:103950009C3800005946000007B56046002800D199
:1039600000BE01880A0A0230DF2AFAD1C9B28208F1
:1039700004D3028840880004104300E00068024A33
:103980005050039007BD0000E037002051434343EF
:10399000C9188C46110C83B24B4310B4040C61431C
:1039A00092B280B2504362431C041B0C001910BC3D
:1039B00059411304120CC018514161447047000072
:1039C00007B548404140484001E0C04607B54200C5
:1039D000120E03D0FF2A03D1420218D8C00DC00531
:1039E0004A00120E03D0FF2A03D14A020FD8C90D94
:1039F000C9050122414005D4414001D5814207BD9E
:103A0000884207BD0143491801D0C043001807BDD3
:103A100000B5FFF7DBFF01D0002000BD012000BD95
:103A200000B5FFF7D3FF01D9002000BD012000BD84
:103A300001231B064200D21804D84A00D21801D82C
:103A4000002070470120704710B50148FEF758FA72
:103A50005410041070B513231E781848FFF776FB36
:103A60000500012E11D0012E09DDAB1E1B789B0035
:103A70007F2B1DDD12488022290000F05BF81148E1
:103A8000FFF75CFB104B186070BD0D4854222900F5
:103A900000F050F8002300E001331F2BE3D8084A60
:103AA0009C00A258002AF7D10849054AA150F3E723
:103AB000074B084A08484221FEF78AF9534600009E
:103AC000E43800204C330000E0380020493A001070
:103AD000D8130410501404100C14041010B500284E
:103AE00004D04018034B984200D810BD0248FEF79E
:103AF00007FAC046000004206414041070B50500E5
:103B000030F0F4F904002900FFF7E8FF200070BD51
:103B100010B530F0F5F910BD01480421014B1847EC
:103B2000401300205D310010014B1B681847000056
:103B300040130020014B5B68184700004013002031
:103B400010B5FFF7DBFF10BD10B5FFF7D7FF10BDB5
:103B500010B5FFF7DDFF10BD10B5FFF7D9FF10BDA1
:103B600010B5FFF7D5FF10BD084B5B6A994209D825
:103B7000064A926A824207D2994201D0012002E0AD
:103B8000002000E0002070470120FCE700400540D5
:103B900010B50300080011001B68984710BD000015
:103BA000F8B507000D001600437D002B02D000245D
:103BB00000200CE003681100280098472DE03B7DB1
:103BC00010E03B68154802219847601C0134B4425C
:103BD00014DA002CF3DD2B19013B1B780D3B5A4204
:103BE0005341DBB22A5D0A2AF0D1002BEED1A0426C
:103BF000E7DA3B68211A28189847E2E7B04203DA6F
:103C00003B68311A28189847002E06DDAD19013D92
:103C10002B780D3B5A4253413B75F8BDD414041028
:103C200070B505000368002B16D00C4B1C6805E02E
:103C3000290004C92000FFF7B3FF2469002C09D034
:103C40002368002BF9D0064B1B68002BF0D0A34251
:103C5000F3D1EDE700232B6070BDC046BC370020D8
:103C6000C037002070B505000C000B68802B05D014
:103C700023685A1C2260E418257170BD0800FFF704
:103C8000CFFFF5E710B5002B02DB0260436010BDEB
:103C9000024B034A03483F21FEF79AF8180A041022
:103CA000D8140410340A041010B582B00400FDF7D3
:103CB00055FB02000B006846FFF7E4FF009A019BEA
:103CC00022606360200002B010BD000070B582B0B9
:103CD000060014001D00FA2292000023069800211D
:103CE000FFF754FE02000B0012196B41002B09DB99
:103CF0006846FFF7C7FF009A019B3260736030008F
:103D000002B070BD01225242004BF1E7FFFFFF7F7E
:103D100030B585B004000D0002A8FFF7C5FF029A78
:103D2000039B00952000FFF7D1FF200005B030BDB8
:103D3000F8B5CE46474680B507000E009146984636
:103D40001BE0A368002B04D03100380098470028FE
:103D500018DC2469002C06D00C4D2D68002DF0D005
:103D6000A542F6D1EDE748464146FFF7FDFE0028A3
:103D700006D101200021FDF711FB054B1C68E9E786
:103D800001204042C0BCB946B046F8BDC037002053
:103D9000BC37002000B583B0FA2189006846FFF7E0
:103DA000B7FF009A019B02483CF0A2FC03B000BDA3
:103DB000201E002010B502483CF04AFC10BDC04651
:103DC000201E0020F0B5CE46474680B583B00600E1
:103DD0000D0090461C00FFF7DDFF81466B1C05D0EF
:103DE000002C08D0194F1A4B1C6807E0300032F045
:103DF00025F90500F4E7174FF5E72469002C17D0E3
:103E00002368002BF9D0144B1B68002B01D0A34270
:103E1000F3D12A0031002000B8474346002BECD0F4
:103E20006B46D91D0A230B7001222000B847E4E736
:103E30004B46002B07D16B1E9D41E8B203B0C0BCBE
:103E4000B946B046F0BDFFF7B5FFF4E7913B00106F
:103E5000BC370020A13B0010C037002010B5030084
:103E600008001100002B05D1044B1A685B68FFF7AE
:103E70005FFF10BD01204042FBE7C046F80C041074
:103E800010B5030008001400013B012B06D80023E5
:103E900000222100FFF796FF200010BD01204042C4
:103EA000FBE701204042704701204042704701205B
:103EB000404270470300002002229A42404170476E
:103EC000094A01E010331A001368002B08D083421E
:103ED000F8D1002907D1036913600023036102E0D0
:103EE000002900D010607047BC37002010B5064B89
:103EF0001C6801E098472469002C03D06368002BFC
:103F0000F8D1F8E710BDC046BC37002070B50500F9
:103F100032F094F804000023012201002800FFF78A
:103F200051FFFFF7E3FF200070BD000070B5A2B0A5
:103F300004000E00FFF72EFF0500002301930A483E
:103F40003300220001A9FFF7E1F8040001A8FFF700
:103F500067FEFFF7CBFF002D02D1200022B070BD1D
:103F6000FFF728FFF9E7C046653C00100FB400B525
:103F700083B004A901C90191FFF7D8FF03B008BCC1
:103F800004B0184710B500F0FFF8012010BD000084
:103F900010B582B00C00144BC3185A425341134A57
:103FA0005B009B5E8B4204D06B46DA1D14700021CF
:103FB00015E06B46DA1D0D23137000210029F3D1A3
:103FC00083699B06FCD41378036001310132F5E765
:103FD00083699B06FCD41378036001310132002908
:103FE000F6D002B010BDC0460080FCBFF8390020FA
:103FF00082B000226B46D91D06E08369DB06FCD443
:1040000003680B7001320131002AF6D06B46D87973
:1040100002B0704770B506000D00002405E0315D68
:10402000034B1868FFF7B4FF0134AC42F7DB70BDF7
:10403000FC390020F8B506000D00002705E07C1CC7
:10404000F719FFF7D5FF38702700AF4204DA0E4AA0
:1040500010688269D206F2D50C4A1268002A0CD088
:10406000094A12685021916310003430526B18399C
:1040700011408022520102431160002F01D038000C
:10408000F8BD033FFBE7C046FC3900204C37002059
:1040900010B5064B1B68002B06D0054A126800219C
:1040A0009163044A1068984710BDC0464C37002001
:1040B000FC3900205037002070B505000E001C4B65
:1040C0001A681C4BD31859424B4114331C0000286A
:1040D0001ED0194B1B68002B04D0174B1D60174BCB
:1040E0001E6070BD16492000FCF7E4FA0121200093
:1040F000FCF7D0FA0E4B1B6850229A63190034313A
:104100005B6B183A1A4080235B010B431A60E4E7AB
:10411000094B1B68002BE0D0002393630021200093
:10412000FCF7B8FA06492000FCF7EEFAD5E7C046DE
:10413000FC3900200080FCBF4C37002050370020A5
:104140009140001070B50D001C000D4B1860002A46
:104150000BDA002C0EDA0A4B18682900FDF71CFC5C
:1041600008480121FFF7ACFE70BD02211000FCF7EA
:104170007BF9EEE702212000FCF776F9EBE7C04679
:10418000FC3900205013002010B5064B1B78064B5D
:104190001B78E1210123002249020448FFF7D2FFE6
:1041A00010BDC04678BB041074BB0410004003402F
:1041B00010B5024800F004F810BDC046D837002002
:1041C00070B588B0040004AD0026049609220021D1
:1041D00005A8FFF7A9FC00960922002101A8FFF716
:1041E000A3FC4B232B700D22694628003CF028FAD3
:1041F000002304E05A1D69468A5CE2540133072B10
:10420000F8DD08B070BDF0B5DE4657464E4645466F
:10421000E0B585B00700100098460EAB1B780393FD
:104220000F9D109E3B680022DA663B6859603B6830
:104230000132DA660022002399460024C346414633
:10424000029190462BE03A79002A31D001222FE0EA
:104250000399002901D000212EE001212CE030003B
:10426000A84703000443E4B2002B06D13A68526B1E
:10427000D20602D4002DF2D1F6E7002B09D13A681C
:1042800080215158894600291FD1002C2FD1C245C9
:104290001ED0002C33D101229446E0440198D84529
:1042A0002DDA029A013A92464246002ACBD00022E9
:1042B0009202C245CCD0002149020A43411C01911F
:1042C0000078396802430A61D4E7526D01240EE098
:1042D000039A002ADDD10AE03000A8470300044316
:1042E000E4B2002B06D13A68526B920502D4002D3D
:1042F000F2D1F6E7002BCCD13A68126EC9E74246FC
:10430000002C09D0002B15D14B46002B16D0DB0713
:1043100018D44B461B0709D5039B3B71100005B011
:10432000F0BCBB46B246A946A046F0BD02235B42A4
:104330001A00F1E701235B421A00EDE702235B421A
:104340001A00E9E702235B421A00E5E7F0B5D6461A
:104350004F464646C0B505000C000520FDF760FC41
:104360000600600880192100FEF73CFF07004300AB
:104370009946814405214846FEF734FF80463B1AA2
:104380009A46284B9C4224D8700080192649FEF793
:1043900029FF441C4346023BA34221D32B68002241
:1043A000DA6629680B680432534002321A408023CF
:1043B0005B010B431A602B685246DA612B68424658
:1043C0001A624B464F2B11D950214846FEF70AFF7F
:1043D0000DE0700080191549FEF704FF441CD9E771
:1043E000134B144A14485D21FDF7F2FC01202A68A2
:1043F000A023D0502B681A007C32DB6F5C40240471
:10440000240C80235B0113431C602B680122DA66B5
:1044100039003000FEF7E6FEE0BCBA46B146A846D9
:10442000F0BDC0463F420F008096980040787D0165
:1044300098160410F4160410B816041010B5114B99
:1044400098421DD01022104B1A60104B1A60104B6E
:104450009B6814009C43231EF9D104710268D46642
:1044600002686624FF3414600268D36302689363B1
:1044700002688833633CFF3CD450FFF767FF10BDF0
:104480000822E0E76813002000E0004000F0004050
:1044900000C0004030B585B008AC257800240294F7
:1044A00001940095FFF7AFFE05B030BDF0B5DE46D4
:1044B00057464E4645460122E0B5DF4D0024280010
:1044C000DE4B83B01A70DE4B1C3098461B686C6064
:1044D0009E68DC4BAC609B462B60EC602C616C6191
:1044E000AC6101F0FFF8D84BD84F9A462B600123FE
:1044F0005B4299466B6243461B682E6238005E68D9
:104500005B461C303B607C60BC60FC603C617C6155
:10451000BC6101F0E7F853463B604B467B62434683
:104520003E62CB4E5A4630001B681C30DB6832605E
:1045300001937460B460F46034617461B46101F03B
:10454000D1F8019B524633624B467362C14B3260D5
:104550009946180014F05EFD4B4678221C67043B18
:104560009C5208329C5004329C5004329C50DC67B0
:10457000B94C29002200484614321C605A6014F0DD
:10458000CFFCB64D280014F045FD2B0000227C2105
:10459000083B5A5204315A5004315A5004315A508F
:1045A00004315A50AE49280019601431996039001D
:1045B0002A675A6014F0B4FCAA4D280014F02AFDB2
:1045C000002278212B1F5A5208315A5004315A5078
:1045D00004315A502A67AA67220031001432280099
:1045E0001C602A6014F09CFC9F4D280014F012FD02
:1045F000002278212B1F5A5208315A5004315A5048
:1046000004315A501C603100143428002A67AA670C
:104610002C6014F085FC80229449954B9201996797
:10462000944B954D1869596702431A614346280017
:1046300000241B681C309E68904B6C609B462B606E
:10464000AC60EC602C616C61AC6101F04BF88C4BA0
:104650008C4F9A462B6001235B4299466B6243461E
:104660001B682E6238005E685B461C303B607C60D5
:10467000BC60FC603C617C61BC6101F033F8534676
:104680003B604B467B6243461B683E627E4EDB6866
:10469000300098465B461C3033607460B460F46050
:1046A00034617461B46101F01DF8534633604346D0
:1046B00033624B467362754B9846180014F0AAFC9F
:1046C00043467C221C675C67043B9C5404329C502C
:1046D00004329C5004329C5004329C506C4C290093
:1046E0002200404614321C605A6014F07DFC694D73
:1046F000280014F08FFC2B0000228021083B5A5424
:1047000004315A5004315A5004315A5004315A502D
:104710006149280019601431996039002A676A6775
:104720005A6014F061FC5D4D280014F073FC002207
:104730007C212B1F5A5404315A5004315A500431F1
:104740005A5004315A502A676A67220031001432E5
:1047500028001C602A6014F047FC514D280014F01A
:1047600059FC00227C212B1F5A5404315A50043129
:104770005A5004315A5004315A501C6031001434DC
:1047800028002A676A672C6014F02EFC8022454BB3
:10479000454992019967454B1869596702431A6167
:1047A000434A13680133136003B0F0BCBB46B24602
:1047B000A946A046F0BD2D4B3E4A48465A6014F02B
:1047C00065FC2BF04BF93C4B3C4A28005A6014F036
:1047D0005DFC2BF043F9354B384A28005A6014F041
:1047E00055FC2BF03BF92F4B344A28009A6014F00B
:1047F0004DFC2BF033F92C4B304A40465A6014F0F4
:1048000045FC2BF02BF92E4B2A4A28005A6014F055
:104810003DFC2BF023F9174B264A28005A6014F070
:1048200035FC2BF01BF9124B224A28009A6014F039
:104830002DFC2BF013F9C0467C2F002070130020B4
:10484000081400208C4504103C3B04102C2F002041
:10485000542F00206C330020D0440410C8310020B5
:10486000DC3C041054320020E03200206833002089
:10487000C031002050320020F42F0020CC4504101D
:104880007C3B0410A42F0020CC2F0020AC3500204E
:1048900000450410FC3300200C3D04108C34002033
:1048A0001C350020F4330020A83500208834002077
:1048B0008C310020303C041018350020403C04109E
:1048C000DC320020064A10B513680400591C116040
:1048D000002B01D0200010BDFFF7E8FDFAE7C0462D
:1048E0008C310020104A10B513680400591E116065
:1048F000022B01D0200010BD0C481FF04DFA0C48CF
:104900001FF04AFA0B481FF047FA0B481FF0FCFA59
:104910000A481FF0F9FA0A481FF0F6FAEAE72BF006
:104920002BFA2BF063FAE5E78C3100206833002086
:1049300050320020DC320020A835002088340020CE
:10494000183500207047C04610B50400FFF700F985
:10495000200010BD044A0B6812680360934202D025
:104960001A6801321A6070470C31002001607047EC
:1049700010B5064C2068002800D010BD2000002291
:1049800003492CF0C7FB2068F7E7C046143100202C
:10499000241704100048704724170410416870B5AC
:1049A0000500002916D08368002B10D00024354E56
:1049B000A2005058002805D043685A1E4260012BBF
:1049C00036D0AB680134A342F2D8002902D00800E7
:1049D000FFF7C2F8E968002916D0AB68002B10D0A9
:1049E0000024284EA2005058002805D043685A1EC3
:1049F0004260012B24D0AB680134A342F2D80029D5
:104A000002D00800FFF7A8F82B690024002B0DD076
:104A10001859002802D0FFF79FF82B690434182C8E
:104A2000F6D1002B02D01800FFF796F8280070BDD1
:104A300003685B68B3420BD1FFF78AF86968C0E787
:104A400003685B68B34206D1FFF782F8E968D2E7F2
:104A500098476968B5E79847E968CCE72BF08CF987
:104A60002BF0C4F96968ACE72BF086F92BF0BEF99E
:104A7000E968C0E7013102D12BF00AF9FAE72AF020
:104A8000EDFFC046494900100A4B70B51B68056828
:104A900004009D4204D02B685A1E2A60012B01D0CD
:104AA000200070BD2800FFF779FF2800FFF750F8BD
:104AB000F6E7C0460C3100200E4A0B68126870B54C
:104AC00004000D00934202D0196801311960266874
:104AD000B24204D03268511E3160012A02D0200057
:104AE000236070BD3000FFF759FF3000FFF730F84A
:104AF0002B68F4E70C310020F0B54E464546DE4603
:104B00005746E0B50500160083B0002A00D1ECE05E
:104B10000C68002C04D1B04B1C6801341C600C6084
:104B2000AB68671E013BBB4267D2E31C9A466B68C9
:104B30009B46AA4B9A4500D8E2E001235B42994686
:104B40004846FFF701F88046A868002814D0020004
:104B50006B6801949C46810040469046019A0C0087
:104B6000002361469446CA58C2500433A342FAD186
:104B70004346644680461800824507D953461A1AB0
:104B80008000002192004044FEF7CEFFEB684846CB
:104B90000193FEF7D9FF8146A868002811D0EB6881
:104BA00002009C468100080000236146A4464C4652
:104BB0009146CA58E25004339842FAD14846A14679
:104BC0006446824507D953461A1A80000021920094
:104BD0004844FEF7A9FF5346AB6043466B604B4623
:104BE000EB605B46002B02D05846FEF7B5FF019BF9
:104BF000002B02D01800FEF7AFFF7368BF0001332F
:104C000073606B689C4667443B689846002B48D0AD
:104C1000734A116800293DD0A9466F480FE05568D6
:104C20002B68002B03D10368013303602B609C4287
:104C300000D172E091680832002900D191E00B6840
:104C4000002B03D10368013303600B609C42E6D163
:104C500051684D460B68002B04D15F4A136801333D
:104C600013600B60013B9C0064442368002B11D04F
:104C700030000EF0BBFA4368804601334360206881
:104C800043685A1E4260012B00D175E04346236001
:104C90003B689846434641465B685A1E4A60012B72
:104CA00032D0AA683E60002A1FD0002399464D4B9F
:104CB00000249846E96805E04A461A60AA6801346B
:104CC000A24212D9A6008B1918680028F7D04268B2
:104CD000571E4760012AEFD103685B6843450BD13B
:104CE000FEF736FFE9688B19E6E703B0F0BCBB4678
:104CF000B246A946A046F0BD9847E9688B19DBE7A4
:104D000053469B0099461BE70B68364A5B68404652
:104D100093422FD1FEF71CFFC3E70B684D46002BD3
:104D200004D12D4A1368013313600B60013B9C00D2
:104D300064442368002BADD0300004F02FFF43689B
:104D4000804601334360206843685A1E4260012B4D
:104D50009CD10368234A5B68934214D1FEF7F8FEA6
:104D600094E7434641465B684D465A1E4A60012B14
:104D700097D1C9E7984794E703681A4A5B6893425A
:104D8000ECD0984782E7984780E72AF0F5FF404645
:104D9000FEF7E2FE2BF05EFC2AF0EEFF2BF026F889
:104DA0007FE72AF0E9FF2BF021F8A6E72AF0E4FFDD
:104DB0002BF01CF86AE72AF0DFFF2BF017F865E705
:104DC0002BF014F82AF04AFE0131FBD12AF060FFE3
:104DD000FAE7F9E7F8E7C04610310020FEFFFF1FB1
:104DE0002817041049490010F8B5384F060038005C
:104DF0000D0014002BF066FC00283FD1344A1168E6
:104E0000002930D033480EE057683B68002B03D1AF
:104E10000368013303603B60013B9C4232D09168E0
:104E2000083200291FD00B68002B03D1036801331F
:104E300003600B60013B9C42E6D152681368002B73
:104E40003BD0F268A40014192168013B002929D045
:104E5000002D07D02B68204A5B682800934232D18E
:104E6000FEF776FEF8BDF368A4001B191A68002A45
:104E7000EED16A6801326A601D60F3E738002BF0FA
:104E80003DFCBBE70A68002A04D1124B1A680132C4
:104E90001A600A602300541EF268A40014192168E5
:104EA0000029D5D16968481C68602560581CD9D094
:104EB00002319B0069609D50D4E706490B680133BD
:104EC0000B601360BDE79847CCE7C0464023002045
:104ED0002817041010310020494900100300006811
:104EE000002804D1034A10680130106018600138AE
:104EF0007047C04610310020F0B5DE464E464546AC
:104F000057463023E0B50600FE4C836091B0016047
:104F1000C02200212000FEF707FE7460FA4CC02278
:104F200000212000FEF700FEF460F84C142200215E
:104F30002000FEF7F9FD043CF54D34612560FFF7D4
:104F400029FD022201002800FEF7F4FDF14C0123A7
:104F500000220021200005F0D3FF22003000EE499E
:104F6000FFF7CAFDED4C012120002CF073F922005F
:104F70003000EB49FFF7C0FDEA49EB4B01220B6023
:104F8000002308008B60CB600B744B618B61CB619D
:104F90000B628B8400914A600021E44C6433C1545D
:104FA000E34BA060002120006260236001F0B8F8AC
:104FB000E04B2200190030000993FFF79DFD01230B
:104FC000DD4A30005360DD4BDD491360FFF794FD8F
:104FD0000123DC4A30005360DB4BDC491360FFF7F0
:104FE0008BFD0123DA4C6360DA4B2360FFF7C0FCD2
:104FF000A06022003000D849FFF77EFDD74B012288
:105000009A4651465A60D64B50460B6000238B603F
:10501000CB600021D34C038243618361C36103628F
:1050200043628362C362036343634333C154CE4B21
:1050300081746260A060002200212000236000F0E3
:10504000D7FBCA4B2200190030000593FFF754FD2F
:10505000C74B0122994649465A60C64B48460B60E9
:1050600000238B60CB600021C34C038243618361CA
:10507000C361036243628362C36203634363433376
:10508000C154BE4B81746260A060002200212000E8
:10509000236000F05DFBBA4B22001900300008933A
:1050A000FFF72AFD0123B74A30005360B64BB749DA
:1050B0001360FFF721FD0123B54A30005360B54B63
:1050C000B5491360FFF718FD0123B44D80226B60D2
:1050D000B34B00202B600023AB60EB602B616B6156
:1050E000AB61EB612B626B62AB62EB622B636B6358
:1050F000AB63EB632B646B64AB64EB642B656B6538
:10510000AB65EB652B666B66AB66EB662B676B6717
:10511000AB67AB500432AB500432AB500432AB50EF
:105120000432AB500432AB500432AB500432AB50BB
:105130000432AB500432AB500432AB500432AB50AB
:105140000432AB500432AB502A000021B832106058
:105150005160C022934CAB500432AB542900200064
:10516000C33AEB6714F0B4FD8F4B220019003000F6
:105170000293FFF7C1FC01238C4A300053608C4B33
:105180008C491360FFF7B8FC01238B4A3000536051
:105190008A4B8B491360FFF7AFFC8A4C012120003A
:1051A0000AF09EFA220030008749FFF7A5FC874CE1
:1051B0000121200005F078FE220030008449FFF72D
:1051C0009BFC844C012120002CF05CF82200300074
:1051D0008149FFF791FC814B01229B4659465A6059
:1051E0007F4B5C460B60002300208B60CB600B7410
:1051F0004B618B61CB610021206261629221584634
:1052000049006354A362774C774BA06000212000D3
:105210006260236001F00AF8744B2200190030002C
:105220000693FFF769FC0123714A30005360714B0C
:1052300071491360FFF760FC0123704A300053602E
:105240006F4B70491360FFF757FC01236E4C63608E
:105250006E4B2360FFF78CFBA060220030006C498E
:10526000FFF74AFC6B4B0122984641465A606A4B55
:1052700040460B6000238B60CB600B744B618B61ED
:10528000CB610B624B628B62CB620B634B638B63B4
:10529000CB636C21614C4354614B6260A06000227F
:1052A00000212000236000F0ABFB5E4B22001900C0
:1052B00030000393FFF720FC5B4F5C4B6C213B609D
:1052C000002301225A4C7B54BB60FB603B747B6122
:1052D000BB61FB613B627B62BB62FB623B637B63E6
:1052E000BB63FB63534B7A606260002100222000A5
:1052F0002360A76000F034FB4F4B22001900300000
:105300009CE0C0464C2E00205C2D0020482D002043
:105310003426002040260020043100201C2E0020CE
:105320006C310020642400202C180410702300200D
:105330005C2C04103C3100200C2F0020C0420410D3
:105340007C3100201C2F0020FC42041084310020FE
:10535000342E0020402C04102C310020CC240020BE
:10536000C817041014240020B42C04101C31002091
:1053700010250020B817041020240020802C0410D1
:1053800020310020B8230020042D04104C310020CF
:10539000C82300201C2D041054310020901F002031
:1053A0002C430410D82300204C30002088230020F8
:1053B000342D041044310020982300202C44041084
:1053C000A831002050230020343100206028002024
:1053D00008310020282E002070310020681E002097
:1053E0003C1804107C230020B03904104031002008
:1053F000142F0020504C041080310020242F002056
:105400008C4C041088310020402E00209439041068
:105410003031002054250020E81704102C240020EF
:10542000083A041024310020C4250020D8170410A5
:1054300038240020D4390410283100200493FFF7C9
:105440005BFB0123894A30005360894B8949136013
:10545000FFF752FB0123884A30005360874B88498D
:105460001360FFF749FB0123864C80226360864B63
:10547000002023600023A360E36023616361A361D4
:10548000E36123626362A362E36223636363A363F2
:10549000E36323646364A364E36423656365A365D2
:1054A000E36523666366A366E36623676367A367B2
:1054B000A3500432A3500432A3500432A350043248
:1054C000A3500432A3500432A3500432A350043238
:1054D000A3500432A3500432A3500432A350043228
:1054E000A3500432A35022000021B8321060516052
:1054F000C022A3500432A354E367644B2100180078
:10550000C33A019320F022F8614B30001900019A50
:105510000793FFF7F1FA01235E4A300053605E4BB8
:105520005E491360FFF7E8FA01235D4A30005360DB
:105530005C4B5D491360FFF7DFFA5C4B01211800FB
:10554000019313F005FA30005949019AFFF7D4FA94
:105550000123584A30005360574B58491360FFF7F6
:10556000CBFA0123564A30005360564B564913601C
:10557000FFF7C2FA0123554A30005360544B554996
:105580001360FFF7B9FA0123534A30005360534BBD
:1055900053491360FFF7B0FA52460B924A460C92F9
:1055A0005A460D924246009B30000AA90A930E9279
:1055B0000F9701F063FDF26809980192FFF78EFCE6
:1055C000009B019A80008350F36805980093FFF7D1
:1055D00085FC5246009B8000C250F36808989A46AA
:1055E000FFF77CFC4A4653468000C250F36802989D
:1055F0009946FFF773FC4B468000C5500698F56846
:10560000FFF76CFC5B46800043510398F568FFF799
:1056100065FC4346800043510498F568FFF75EFC43
:10562000800047510798F568FFF758FC8000445107
:10563000300011B0F0BCBB46B246A946A046F0BD52
:1056400006000D0001350FD130002AF021FB0600C5
:1056500020000D00FFF776F9F4E7F8E7F7E7F6E743
:10566000F5E7F4E7F3E7F2E72AF0F8F9C0230020C2
:10567000583A041050310020D0230020703A041012
:105680005831002058200020BC4C0410EC2300208E
:105690005030002090230020883A04104831002028
:1056A000A0230020BC4D0410AC310020602300205A
:1056B00038310020A8230020801A0410683100200F
:1056C000B0230020D81A04106031002044240020A8
:1056D000301B0410643100204C240020881B04106F
:1056E0005C310020F8B50023144E036033680400D9
:1056F000002B15D0124D2A6822609A420AD0114E12
:1057000030002AF0DFFF002806D12B681A682360DA
:1057100001321A602000F8BD30002AF0EFFFF4E7F4
:10572000094F02213800FFF7E7FB054D3900074814
:1057300037602F60FFF71AF93368DCE70C3100207F
:10574000183100203C23002000240020402D0020A0
:1057500070B504008068002828D02E232C224374C2
:10576000A3681F4D9A740023A0681E4AC36083611A
:1057700003628362C36282604261C2614262290045
:1057800004223030FEF7D6F9A06804222900343014
:10579000FEF7D0F90022144B1868A368815C9B18AF
:1057A0003833013219700B2AF7D170BD4430FEF73F
:1057B000C7F90E4B00220360002343608360C3607F
:1057C000038243618361C361036243628362C36294
:1057D0000363436343338274A060C254BDE7C04691
:1057E000D45204105410041080130020B817041071
:1057F00070B504008068002828D02E232C22437422
:10580000A3681F4D9A740023A0681E4AC360836179
:1058100003628362C36282604261C26142622900A4
:1058200004223030FEF786F9A068042229003430C3
:10583000FEF780F90022144B1868A368815C9B185E
:105840003833013219700B2AF7D170BD4430FEF79E
:1058500077F90E4B00220360002343608360C3602E
:10586000038243618361C361036243628362C362F3
:105870000363436343338274A060C254BDE7C046F0
:10588000D45204105410041080130020C8170410C0
:10589000094B10B5040003608068002802D003683B
:1058A0005B6898472000FFF74DF8200010BD2000EE
:1058B000FFF748F82AF0D2F8802C04100D4B10B5F1
:1058C000040003608068002802D003685B68984782
:1058D0002000FFF737F82000FEF73AF9200010BD4E
:1058E0002000FFF72FF82000FEF732F92AF0B6F873
:1058F000F9E7C046802C0410094B10B50400036082
:105900008068002802D003685B6898472000FFF792
:1059100019F8200010BD2000FFF714F82AF09EF8B7
:10592000B42C04100D4B10B50400036080680028EF
:1059300002D003685B6898472000FFF703F8200057
:10594000FEF706F9200010BD2000FEF7FBFF200047
:10595000FEF7FEF82AF082F8F9E7C046B42C0410EE
:1059600070B504008068002827D02E234361023BD5
:1059700083611E4B1E4A836000231E4DC360036279
:10598000836203634363C2614262C26229000422EC
:105990003830FEF7CFF8A068042229003C30FEF72B
:1059A000C9F8A068144B1A6803006C3040331178B2
:1059B000013202C38342FAD170BD7030FEF7C0F8E5
:1059C0000E4A002302606C2243608360C36003744C
:1059D00043618361C361036243628362C3620363A1
:1059E00043638363C363A0608354BEE75410041011
:1059F0004C7D0410D452041080130020D8170410DA
:105A000070B504008068002827D02E234361023B34
:105A100083611E4B1E4A836000231E4DC3600362D8
:105A2000836203634363C2614262C262290004224B
:105A30003830FEF77FF8A068042229003C30FEF7DA
:105A400079F8A068144B1A6803006C304033117861
:105A5000013202C38342FAD170BD7030FEF770F894
:105A60000E4A002302606C2243608360C3600374AB
:105A700043618361C361036243628362C362036300
:105A800043638363C363A0608354BEE75410041070
:105A90004C7D0410D452041080130020E817041029
:105AA000094B10B5040003608068002802D0036829
:105AB0005B6898472000FEF745FF200010BD2000DE
:105AC000FEF740FF29F0CAFFD43904100D4B10B582
:105AD000040003608068002802D003685B68984770
